00COTAHIST.2023BOVESPA 20231109                                                                                                                                                                                                                      
012023010202NEOE3       010NEOENERGIA  ON      NM   R$  000000000154000000000015400000000001498000000000150800000000015030000000001503000000000150601916000000000000325000000000000490215100000000000000009999123100000010000000000000BRNEOEACNOR3117
012023010202NEXP3       010NEXPE       ON      NM   R$  000000000003100000000000310000000000029000000000002900000000000300000000000030000000000003100255000000000000197700000000000005898000000000000000009999123100000010000000000000BRNEXPACNOR0100
012023010202NGRD3       010NEOGRID     ON      NM   R$  000000000014800000000001500000000000143000000000014600000000001450000000000145000000000014601011000000000000589900000000000086150900000000000000009999123100000010000000000000BRNGRDACNOR3102
012023010202NINJ3       010GETNINJAS   ON      NM   R$  000000000027000000000002790000000000269000000000027300000000002710000000000271000000000027900421000000000000076000000000000020792600000000000000009999123100000010000000000000BRNINJACNOR5100
012023010202NORD3       010NORDON MET  ON           R$  000000000084800000000009000000000000848000000000085700000000008500000000000720000000000084900017000000000000002700000000000002314300000000000000009999123100000010000000000000BRNORDACNOR7135
012023010202TTEN3       0103TENTOS     ON      NM   R$  000000000096500000000009650000000000907000000000092300000000009360000000000935000000000093603292000000000000701700000000000648253300000000000000009999123100000010000000000000BRTTENACNOR0101
012023010202TUPY3       010TUPY        ON  EJ  NM   R$  000000000277100000000027710000000002583000000000263700000000026570000000002643000000000265703367000000000000573000000000001511380400000000000000009999123100000010000000000000BRTUPYACNOR1180
012023010202UCAS3       010UNICASA     ON      NM   R$  000000000025500000000002550000000000247000000000025000000000002490000000000248000000000025100024000000000000009600000000000002401600000000000000009999123100000010000000000000BRUCASACNOR1112
012023010202UGPA3       010ULTRAPAR    ON      NM   R$  000000000124000000000012520000000001185000000000120100000000011950000000001189000000000119510920000000000002973300000000003572179500000000000000009999123100000010000000000000BRUGPAACNOR8152
012023010202ALUP11      010ALUPAR      UNT     N2   R$  000000000279300000000028240000000002720000000000276500000000027670000000002767000000000276804721000000000000795800000000002200878800000000000000009999123100000010000000000000BRALUPCDAM15113
012023010202DMVF3       010D1000VFARMA ON      NM   R$  000000000040000000000004070000000000395000000000040200000000003990000000000399000000000040300046000000000000007500000000000003017400000000000000009999123100000010000000000000BRDMVFACNOR9100
012023010202DOHL4       010DOHLER      PN           R$  000000000042400000000004290000000000421000000000042300000000004260000000000418000000000042400012000000000000001700000000000000719600000000000000009999123100000010000000000000BRDOHLACNPR9066
012023010202DOTZ3       010DOTZ SA     ON      NM   R$  000000000012900000000001290000000000123000000000012400000000001270000000000125000000000012700114000000000000029400000000000003663800000000000000009999123100000010000000000000BRDOTZACNOR7100
012023010202DXCO3       010DEXCO       ON  EB  NM   R$  000000000066900000000006690000000000645000000000065700000000006630000000000663000000000066405512000000000001491800000000000980314700000000000000009999123100000010000000000000BRDXCOACNOR8103
012023010202EALT4       010ACO ALTONA  PN           R$  000000000067100000000006940000000000656000000000067100000000006560000000000656000000000066000164000000000000046000000000000030887600000000000000009999123100000010000000000000BREALTACNPR1136
012023010202PORT3       010WILSON SONS ON      NM   R$  000000000108200000000011020000000001058000000000106600000000010600000000001060000000000106900705000000000000115700000000000123348400000000000000009999123100000010000000000000BRPORTACNOR8103
012023010202POSI3       010POSITIVO TECON      NM   R$  000000000093900000000009400000000000866000000000088800000000008820000000000881000000000088205082000000000001761000000000001564475400000000000000009999123100000010000000000000BRPOSIACNOR9114
012023010202PRIO3       010PETRORIO    ON      NM   R$  000000000368800000000037660000000003645000000000368700000000036760000000003676000000000367924159000000000006577200000000024255931200000000000000009999123100000010000000000000BRPRIOACNOR1104
012023010202SYNE3       010SYN PROP TECON      NM   R$  000000000041300000000004130000000000400000000000040500000000004060000000000406000000000040800858000000000000857000000000000347935200000000000000009999123100000010000000000000BRSYNEACNOR2102
012023010202BLAU3       010BLAU        ON  EJ  NM   R$  000000000280000000000028000000000002523000000000259400000000026030000000002603000000000260901079000000000000141000000000000365797400000000000000009999123100000010000000000000BRBLAUACNOR8108
012023010202ABEV3       010AMBEV S/A   ON           R$  000000000144000000000014450000000001402000000000141900000000014190000000001418000000000142036426000000000014995900000000021285685100000000000000009999123100000010000000000000BRABEVACNOR1126
012023010202BRGE11      010ALFA CONSORCPNE          R$  000000000089000000000008900000000000890000000000089000000000008900000000000890000000000099900001000000000000000100000000000000089000000000000000009999123100000010000000000000BRBRGEACNPE1109
012023010202BRIT3       010BRISANET    ON      NM   R$  000000000027300000000002730000000000252000000000025400000000002540000000000254000000000025500811000000000000830500000000000211349800000000000000009999123100000010000000000000BRBRITACNOR0101
012023010202BRIV3       010ALFA INVEST ON           R$  000000000090000000000009000000000000900000000000090000000000009000000000000882000000000093400001000000000000000100000000000000090000000000000000009999123100000010000000000000BRBRIVACNOR6208
012023010202BRIV4       010ALFA INVEST PN           R$  000000000092900000000009290000000000850000000000087000000000008990000000000872000000000093900007000000000000001900000000000001653100000000000000009999123100000010000000000000BRBRIVACNPR3215
012023010202BRKM3       010BRASKEM     ON      N1   R$  000000000249700000000024970000000002406000000000245700000000024960000000002439000000000249700062000000000000009400000000000023099600000000000000009999123100000010000000000000BRBRKMACNOR1119
012023010202BRKM5       010BRASKEM     PNA     N1   R$  000000000238600000000023860000000002288000000000232100000000023220000000002322000000000232806925000000000001345700000000003123548200000000000000009999123100000010000000000000BRBRKMACNPA4120
012023010202BRML3       010BR MALLS PARON      NM   R$  000000000082000000000008210000000000798000000000080500000000008030000000000803000000000080425980000000000008134100000000006550442000000000000000009999123100000010000000000000BRBRMLACNOR9117
012023010202BRPR3       010BR PROPERT  ON      NM   R$  000000000064200000000006420000000000629000000000063200000000006330000000000633000000000063404094000000000001297900000000000820937700000000000000009999123100000010000000000000BRBRPRACNOR9124
012023010202DASA3       010DASA        ON  EJ  NM   R$  000000000136600000000013690000000001283000000000132200000000013380000000001337000000000133903124000000000000396900000000000524958800000000000000009999123100000010000000000000BRDASAACNOR1122
012023010202ODPV3       010ODONTOPREV  ON      NM   R$  000000000090000000000009020000000000869000000000088500000000008890000000000882000000000088902380000000000000836500000000000740496300000000000000009999123100000010000000000000BRODPVACNOR4193
012023010202OFSA3       010OUROFINO S/AON      NM   R$  000000000237700000000024010000000002365000000000236600000000023650000000002352000000000237900006000000000000008300000000000019639100000000000000009999123100000010000000000000BROFSAACNOR7115
012023010202OIBR3       010OI          ON      N1   R$  000000000001700000000000180000000000017000000000001700000000000170000000000017000000000001806498000000000043178300000000000748225800000000000000009999123100000010000000000000BROIBRACNOR1109
012023010202OIBR4       010OI          PN      N1   R$  000000000005200000000000540000000000051000000000005200000000000530000000000053000000000005400478000000000001350700000000000071523800000000000000009999123100000010000000000000BROIBRACNPR8108
012023010202ONCO3       010ONCOCLINICASON      NM   R$  000000000059500000000005960000000000554000000000056800000000005790000000000579000000000059004098000000000001937800000000001101961200000000000000009999123100000010000000000000BRONCOACNOR6100
012023010202PFRM3       010PROFARMA    ON  EJ  NM   R$  000000000036300000000003630000000000348000000000035100000000003480000000000348000000000035200682000000000000132100000000000046477400000000000000009999123100000010000000000000BRPFRMACNOR1114
012023010202SEER3       010SER EDUCA   ON      NM   R$  000000000044000000000004400000000000423000000000042900000000004360000000000432000000000043601412000000000000497800000000000213585200000000000000009999123100000010000000000000BRSEERACNOR5119
012023010202SEQL3       010SEQUOIA LOG ON      NM   R$  000000000030100000000003070000000000281000000000029000000000002930000000000292000000000029303707000000000002604100000000000757068000000000000000009999123100000010000000000000BRSEQLACNOR2100
012023010202SGPS3       010SPRINGS     ON      NM   R$  000000000013800000000001380000000000124000000000012800000000001270000000000127000000000013200291000000000000222100000000000028448700000000000000009999123100000010000000000000BRSGPSACNOR4104
012023010202SHOW3       010TIME FOR FUNON      NM   R$  000000000023500000000002450000000000230000000000023600000000002450000000000243000000000024500390000000000000131500000000000031156700000000000000009999123100000010000000000000BRSHOWACNOR7105
012023010202SHUL4       010SCHULZ      PN  EJ       R$  000000000047000000000004710000000000451000000000045800000000004620000000000462000000000046300662000000000000390100000000000178714700000000000000009999123100000010000000000000BRSHULACNPR4149
012023010202SIMH3       010SIMPAR      ON  EJ  NM   R$  000000000066500000000006650000000000621000000000063100000000006330000000000633000000000063408580000000000002999600000000001894721300000000000000009999123100000010000000000000BRSIMHACNOR0106
012023010202SLCE3       010SLC AGRICOLAON  EJ  NM   R$  000000000459400000000046170000000004501000000000457100000000045940000000004593000000000459504556000000000000731200000000003342643600000000000000009999123100000010000000000000BRSLCEACNOR2120
012023010202ALUP3       010ALUPAR      ON      N2   R$  000000000095900000000009590000000000892000000000090100000000009050000000000905000000000091200094000000000000016200000000000014610700000000000000009999123100000010000000000000BRALUPACNOR8113
012023010202ALUP4       010ALUPAR      PN      N2   R$  000000000096300000000009630000000000910000000000092600000000009100000000000909000000000093000053000000000000008400000000000007782700000000000000009999123100000010000000000000BRALUPACNPR5113
012023010202AMAR3       010LOJAS MARISAON      NM   R$  000000000012400000000001250000000000117000000000012000000000001250000000000124000000000012502794000000000004320500000000000520344500000000000000009999123100000010000000000000BRAMARACNOR4113
012023010202AMBP3       010AMBIPAR     ON      NM   R$  000000000205300000000020530000000001971000000000200400000000020340000000002034000000000203503932000000000000885900000000001775669300000000000000009999123100000010000000000000BRAMBPACNOR6102
012023010202AMER3       010AMERICANAS  ON      NM   R$  000000000094700000000009510000000000897000000000091400000000009030000000000902000000000090320553000000000016237300000000014843793800000000000000009999123100000010000000000000BRAMERACNOR6101
012023010202MEAL3       010IMC S/A     ON      NM   R$  000000000028000000000002810000000000267000000000027500000000002810000000000277000000000028103928000000000000976900000000000269089600000000000000009999123100000010000000000000BRMEALACNOR9105
012023010202MEGA3       010OMEGAENERGIAON      NM   R$  000000000094800000000009480000000000898000000000090400000000008980000000000898000000000090104036000000000000990100000000000895933000000000000000009999123100000010000000000000BRMEGAACNOR9101
012023010202MELK3       010MELNICK     ON      NM   R$  000000000032500000000003250000000000295000000000030200000000002970000000000297000000000030102427000000000001099600000000000332590000000000000000009999123100000010000000000000BRMELKACNOR8107
012023010202MGEL4       010MANGELS INDLPN           R$  000000000121000000000012140000000001201000000000120800000000012010000000001192000000000125200006000000000000002600000000000003141000000000000000009999123100000010000000000000BRMGELACNPR3147
012023010202MGLU3       010MAGAZ LUIZA ON      NM   R$  000000000026500000000002660000000000255000000000025800000000002590000000000259000000000026035245000000000070129500000000018162427900000000000000009999123100000010000000000000BRMGLUACNOR2120
012023010202RAIZ4       010RAIZEN      PN      N2   R$  000000000036900000000003710000000000351000000000035700000000003540000000000353000000000035415762000000000009470500000000003382517400000000000000009999123100000010000000000000BRRAIZACNPR6105
012023010202FESA3       010FERBASA     ON      N1   R$  000000000600000000000060000000000005850000000000595000000000059000000000005877000000000620000003000000000000000500000000000002975000000000000000009999123100000010000000000000BRFESAACNOR8182
012023010202FESA4       010FERBASA     PN      N1   R$  000000000534600000000053550000000005037000000000516900000000052030000000005181000000000520301316000000000000190600000000000985281900000000000000009999123100000010000000000000BRFESAACNPR5078
012023010202FHER3       010FER HERINGERON      NM   R$  000000000172600000000017280000000001700000000000170900000000017160000000001715000000000171700711000000000000135000000000000230797200000000000000009999123100000010000000000000BRFHERACNOR5103
012023010202ANIM3       010ANIMA       ON      NM   R$  000000000038200000000003840000000000364000000000037400000000003800000000000380000000000038306002000000000004216800000000001580031400000000000000009999123100000010000000000000BRANIMACNOR6107
012023010202APER3       010ALPER S.A.  ON      NM   R$  000000000269900000000027000000000002588000000000266500000000025880000000002588000000000270000021000000000000010000000000000026650600000000000000009999123100000010000000000000BRAPERACNOR9105
012023010202ARML3       010ARMAC       ON  EDJ NM   R$  000000000117400000000011740000000001021000000000104700000000010440000000001044000000000104602465000000000000565900000000000593038300000000000000009999123100000010000000000000BRARMLACNOR1106
012023010202ARZZ3       010AREZZO CO   ON      NM   R$  000000000778900000000077890000000007251000000000739500000000074120000000007412000000000743006310000000000001008600000000007459368000000000000000009999123100000010000000000000BRARZZACNOR3144
012023010202ASAI3       010ASSAI       ON  EJ  NM   R$  000000000190000000000019170000000001855000000000188700000000018990000000001898000000000189918021000000000004837200000000009129295800000000000000009999123100000010000000000000BRASAIACNOR0105
012023010202ATOM3       010ATOMPAR     ON           R$  000000000024800000000002490000000000239000000000024300000000002400000000000234000000000024000026000000000000007100000000000001730900000000000000009999123100000010000000000000BRATOMACNOR1105
012023010202ESTR4       010ESTRELA     PN           R$  000000000399900000000039990000000003999000000000399900000000039990000000001500000000000450000001000000000000000500000000000001999500000000000000009999123100000010000000000000BRESTRACNPR0143
012023010202EUCA3       010EUCATEX     ON      N1   R$  000000000119500000000012490000000001195000000000119900000000012200000000001197000000000121900018000000000000011400000000000013675100000000000000009999123100000010000000000000BREUCAACNOR1154
012023010202EUCA4       010EUCATEX     PN      N1   R$  000000000085200000000008600000000000834000000000084500000000008460000000000844000000000084600349000000000000127200000000000107586100000000000000009999123100000010000000000000BREUCAACNPR8041
012023010202EVEN3       010EVEN        ON      NM   R$  000000000045700000000004570000000000428000000000043600000000004330000000000433000000000043509736000000000002082900000000000908710800000000000000009999123100000010000000000000BREVENACNOR8116
012023010202EZTC3       010EZTEC       ON      NM   R$  000000000132600000000013290000000001271000000000128800000000012880000000001288000000000129307103000000000001772400000000002284203100000000000000009999123100000010000000000000BREZTCACNOR0119
012023010202TAEE11      010TAESA       UNT     N2   R$  000000000346800000000034970000000003410000000000343500000000034340000000003434000000000343809868000000000001609500000000005530111800000000000000009999123100000010000000000000BRTAEECDAM10140
012023010202TAEE3       010TAESA       ON      N2   R$  000000000116300000000011700000000001136000000000114500000000011560000000001148000000000115801642000000000000207400000000000237556400000000000000009999123100000010000000000000BRTAEEACNOR9140
012023010202TAEE4       010TAESA       PN      N2   R$  000000000117500000000011750000000001141000000000114900000000011620000000001150000000000116501737000000000000357200000000000410745500000000000000009999123100000010000000000000BRTAEEACNPR6140
012023010202TASA3       010TAURUS ARMASON      N2   R$  000000000131800000000013180000000001204000000000124500000000012120000000001212000000000123100547000000000000124800000000000155382200000000000000009999123100000010000000000000BRTASAACNOR7101
012023010202TASA4       010TAURUS ARMASPN      N2   R$  000000000130500000000013230000000001211000000000126100000000012410000000001241000000000124304373000000000001327700000000001674299900000000000000009999123100000010000000000000BRTASAACNPR4101
012023010202TCSA3       010TECNISA     ON      NM   R$  000000000026500000000002650000000000253000000000025600000000002570000000000257000000000025900099000000000000081900000000000021012800000000000000009999123100000010000000000000BRTCSAACNOR3112
012023010202TECN3       010TECHNOS     ON      NM   R$  000000000021000000000002210000000000210000000000021500000000002150000000000215000000000021800468000000000000203800000000000043975800000000000000009999123100000010000000000000BRTECNACNOR6107
012023010202TELB4       010TELEBRAS    PN           R$  000000000101500000000010150000000000975000000000099600000000010120000000000991000000000102800027000000000000006900000000000006878000000000000000009999123100000010000000000000BRTELBACNPR9140
012023010202TEND3       010TENDA       ON      NM   R$  000000000041500000000004210000000000396000000000040500000000004100000000000410000000000041403416000000000001905900000000000773018700000000000000009999123100000010000000000000BRTENDACNOR4111
012023010202JALL3       010JALLESMACHADON      NM   R$  000000000075000000000007500000000000694000000000071000000000007100000000000710000000000071703329000000000000644500000000000457727400000000000000009999123100000010000000000000BRJALLACNOR0103
012023010202JBSS3       010JBS         ON      NM   R$  000000000219900000000022030000000002115000000000214200000000021450000000002145000000000214612379000000000003552200000000007610287600000000000000009999123100000010000000000000BRJBSSACNOR8120
012023010202MWET4       010WETZEL S/A  PN           R$  000000000099900000000010100000000000999000000000100600000000010070000000000944000000000100700007000000000000000800000000000000804800000000000000009999123100000010000000000000BRMWETACNPR3118
012023010202MYPK3       010IOCHP-MAXIONON      NM   R$  000000000116300000000011660000000001129000000000113900000000011480000000001146000000000114803454000000000000962900000000001096836800000000000000009999123100000010000000000000BRMYPKACNOR7152
012023010202AERI3       010AERIS       ON      NM   R$  000000000011200000000001120000000000105000000000010700000000001070000000000106000000000010702979000000000003075400000000000329803100000000000000009999123100000010000000000000BRAERIACNOR4101
012023010202AESB3       010AES BRASIL  ON      NM   R$  000000000096500000000009670000000000946000000000095300000000009500000000000950000000000095105476000000000001793300000000001710566700000000000000009999123100000010000000000000BRAESBACNOR7105
012023010202AFLT3       010AFLUENTE T  ON           R$  000000000094000000000009400000000000928000000000093000000000009300000000000928000000000094000003000000000000000700000000000000651600000000000000009999123100000010000000000000BRAFLTACNOR1119
012023010202AGRO3       010BRASILAGRO  ON      NM   R$  000000000299600000000030090000000002860000000000290700000000029110000000002897000000000291202403000000000000357300000000001038914300000000000000009999123100000010000000000000BRAGROACNOR7113
012023010202AGXY3       010AGROGALAXY  ON      NM   R$  000000000098500000000009900000000000971000000000098100000000009820000000000975000000000098200272000000000000151400000000000148633900000000000000009999123100000010000000000000BRAGXYACNOR4101
012023010202ALLD3       010ALLIED      ON  EJ  NM   R$  000000000058500000000006020000000000570000000000058100000000005800000000000580000000000058800102000000000000043900000000000025545000000000000000009999123100000010000000000000BRALLDACNOR3104
012023010202ALPA3       010ALPARGATAS  ON      N1   R$  000000000116100000000011700000000001160000000000116500000000011700000000001154000000000117000011000000000000002700000000000003145900000000000000009999123100000010000000000000BRALPAACNOR0231
012023010202ALPA4       010ALPARGATAS  PN      N1   R$  000000000149300000000014970000000001415000000000143900000000014330000000001433000000000143910534000000000002121600000000003054636000000000000000009999123100000010000000000000BRALPAACNPR7231
012023010202ALPK3       010ESTAPAR     ON      NM   R$  000000000015600000000001590000000000151000000000015300000000001590000000000159000000000016000113000000000000025500000000000003925100000000000000009999123100000010000000000000BRALPKACNOR9101
012023010202ALSO3       010ALIANSCSONAEON      NM   R$  000000000167900000000016820000000001610000000000162900000000016280000000001628000000000163008470000000000001984100000000003232467800000000000000009999123100000010000000000000BRALSOACNOR5102
012023010202BBSE3       010BBSEGURIDADEON      NM   R$  000000000333500000000033780000000003303000000000334600000000033390000000003339000000000334013799000000000002509400000000008398094300000000000000009999123100000010000000000000BRBBSEACNOR5121
012023010202BRSR3       010BANRISUL    ON      N1   R$  000000000107100000000010710000000001051000000000106400000000010630000000001056000000000107300029000000000000003400000000000003618200000000000000009999123100000010000000000000BRBRSRACNOR3181
012023010202LOGG3       010LOG COM PROPON      NM   R$  000000000160000000000016010000000001535000000000155100000000015390000000001539000000000157401059000000000000193700000000000300565800000000000000009999123100000010000000000000BRLOGGACNOR7105
012023010202LOGN3       010LOG-IN      ON      NM   R$  000000000354600000000036660000000003255000000000345200000000036660000000003627000000000366601425000000000000252200000000000870722800000000000000009999123100000010000000000000BRLOGNACNOR3105
012023010202LPSB3       010LOPES BRASILON      NM   R$  000000000018000000000001830000000000174000000000017700000000001800000000000179000000000018000278000000000000093500000000000016605300000000000000009999123100000010000000000000BRLPSBACNOR0112
012023010202LREN3       010LOJAS RENNERON  EJ  NM   R$  000000000202700000000020330000000001906000000000193700000000019330000000001932000000000193326620000000000007901100000000015306097800000000000000009999123100000010000000000000BRLRENACNOR1215
012023010202OPCT3       010OCEANPACT   ON      NM   R$  000000000027500000000002920000000000274000000000028000000000002860000000000286000000000028700442000000000000419500000000000117853200000000000000009999123100000010000000000000BROPCTACNOR0100
012023010202ORVR3       010ORIZON      ON  ES  NM   R$  000000000334200000000033420000000003085000000000314700000000031350000000003135000000000313601870000000000000357200000000001124399200000000000000009999123100000010000000000000BRORVRACNOR0101
012023010202OSXB3       010OSX BRASIL  ON      NM   R$  000000000065000000000006600000000000650000000000065300000000006600000000000652000000000069200004000000000000001500000000000000980000000000000000009999123100000010000000000000BROSXBACNOR8109
012023010202SMFT3       010SMART FIT   ON      NM   R$  000000000134100000000013410000000001248000000000127700000000012730000000001273000000000127603507000000000000624400000000000797725500000000000000009999123100000010000000000000BRSMFTACNOR1109
012023010202SMTO3       010SAO MARTINHOON      NM   R$  000000000258200000000025820000000002305000000000237300000000023500000000002350000000000235112656000000000003196600000000007587447100000000000000009999123100000010000000000000BRSMTOACNOR3123
012023010202SNSY5       010SANSUY      PNA          R$  000000000035500000000003550000000000313000000000032800000000003130000000000211000000000031400009000000000000000900000000000000295400000000000000009999123100000010000000000000BRSNSYACNPA5111
012023010202SOJA3       010BOA SAFRA   ON      NM   R$  000000000104100000000010490000000001020000000000103400000000010200000000001020000000000103000736000000000000125800000000000130115500000000000000009999123100000010000000000000BRSOJAACNOR9102
012023010202SOMA3       010GRUPO SOMA  ON      NM   R$  000000000096500000000009650000000000925000000000093600000000009250000000000925000000000093014925000000000006504300000000006093803500000000000000009999123100000010000000000000BRSOMAACNOR3101
012023010202BBDC3       010BRADESCO    ON      N1   R$  000000000134700000000013470000000001309000000000131600000000013190000000001317000000000131911536000000000004974100000000006547316700000000000000009999123100000010000000000000BRBBDCACNOR1749
012023010202BBDC4       010BRADESCO    PN      N1   R$  000000000149000000000014990000000001466000000000147400000000014750000000001474000000000147540123000000000024748300000000036500376000000000000000009999123100000010000000000000BRBBDCACNPR8749
012023010202SQIA3       010SINQIA      ON      NM   R$  000000000153400000000015340000000001437000000000148900000000014750000000001475000000000148204151000000000000935700000000001393722700000000000000009999123100000010000000000000BRSQIAACNOR6104
012023010202STBP3       010SANTOS BRP  ON  EJ  NM   R$  000000000078200000000007820000000000741000000000075200000000007470000000000746000000000074706956000000000002272400000000001710868900000000000000009999123100000010000000000000BRSTBPACNOR3122
012023010202SUZB3       010SUZANO S.A. ON      NM   R$  000000000482400000000049160000000004761000000000486800000000048980000000004895000000000489816995000000000002981100000000014512061100000000000000009999123100000010000000000000BRSUZBACNOR0128
012023010202VITT3       010VITTIA      ON      NM   R$  000000000128800000000012880000000001219000000000124300000000012300000000001230000000000124100428000000000000136500000000000169724500000000000000009999123100000010000000000000BRVITTACNOR4103
012023010202DESK3       010DESKTOP     ON      NM   R$  000000000081000000000008100000000000765000000000078200000000007690000000000769000000000077601096000000000000189700000000000148450200000000000000009999123100000010000000000000BRDESKACNOR2102
012023010202DEXP3       010DEXXOS PAR  ON      N1   R$  000000000067500000000006800000000000651000000000066000000000006630000000000663000000000067000963000000000000140600000000000092931300000000000000009999123100000010000000000000BRDEXPACNOR1102
012023010202DIRR3       010DIRECIONAL  ON      NM   R$  000000000154100000000015440000000001457000000000149900000000015270000000001525000000000152706865000000000001930400000000002893945700000000000000009999123100000010000000000000BRDIRRACNOR0116
012023010202DMMO3       010DOMMO       ON           R$  000000000018900000000001920000000000188000000000018900000000001900000000000189000000000019002989000000000001376400000000000260671000000000000000009999123100000010000000000000BRDMMOACNOR0105
012023010202RANI3       010IRANI       ON      NM   R$  000000000080100000000008010000000000772000000000078200000000007810000000000781000000000078203709000000000000853000000000000667687500000000000000009999123100000010000000000000BRRANIACNOR5064
012023010202RAPT3       010RANDON PART ON  EJ  N1   R$  000000000080700000000008070000000000780000000000079000000000007810000000000781000000000079200049000000000000008000000000000006320400000000000000009999123100000010000000000000BRRAPTACNOR7160
012023010202RAPT4       010RANDON PART PN  EJ  N1   R$  000000000081100000000008140000000000794000000000080000000000008020000000000802000000000080404232000000000001801500000000001442344100000000000000009999123100000010000000000000BRRAPTACNPR4160
012023010202AURE3       010AUREN       ON      NM   R$  000000000145400000000014640000000001427000000000144300000000014480000000001447000000000144905688000000000001018800000000001470645800000000000000009999123100000010000000000000BRAUREACNOR9101
012023010202AVLL3       010ALPHAVILLE  ON      NM   R$  000000000070300000000007050000000000703000000000070400000000007050000000000501000000000075000005000000000000000500000000000000352100000000000000009999123100000010000000000000BRAVLLACNOR5101
012023010202AZEV3       010AZEVEDO     ON           R$  000000000014700000000001500000000000135000000000014100000000001500000000000147000000000015000154000000000000134700000000000019119200000000000000009999123100000010000000000000BRAZEVACNOR0120
012023010202AZEV4       010AZEVEDO     PN           R$  000000000013900000000001460000000000132000000000013900000000001420000000000142000000000014300358000000000000288600000000000040182000000000000000009999123100000010000000000000BRAZEVACNPR7120
012023010202AZUL4       010AZUL        PN      N2   R$  000000000108200000000010890000000001029000000000104500000000010300000000001029000000000103010362000000000004640000000000004849620100000000000000009999123100000010000000000000BRAZULACNPR4101
012023010202BEEF3       010MINERVA     ON      NM   R$  000000000129100000000013120000000001252000000000127400000000012700000000001269000000000127015377000000000004190300000000005340502800000000000000009999123100000010000000000000BRBEEFACNOR6114
012023010202BEES3       010BANESTES    ON  EJ       R$  000000000055300000000005690000000000519000000000053400000000005190000000000515000000000051900524000000000000138800000000000074170900000000000000009999123100000010000000000000BRBEESACNOR9371
012023010202BEES4       010BANESTES    PN  EJ       R$  000000000064800000000006480000000000619000000000063200000000006190000000000606000000000062000037000000000000008400000000000005313800000000000000009999123100000010000000000000BRBEESACNPR6296
012023010202CEAB3       010CEA MODAS   ON      NM   R$  000000000022800000000002280000000000215000000000021900000000002200000000000220000000000022105302000000000001984000000000000434562200000000000000009999123100000010000000000000BRCEABACNOR1101
012023010202BPAN4       010BANCO PAN   PN  EJ  N1   R$  000000000060100000000006030000000000570000000000057700000000005740000000000573000000000057405116000000000001783500000000001029778000000000000000009999123100000010000000000000BRBPANACNPR1114
012023010202BRAP3       010BRADESPAR   ON  EJ  N1   R$  000000000255800000000026250000000002554000000000259600000000026070000000002601000000000261100480000000000000080400000000000208791500000000000000009999123100000010000000000000BRBRAPACNOR5145
012023010202BRAP4       010BRADESPAR   PN  EJ  N1   R$  000000000295000000000030060000000002931000000000296700000000029780000000002978000000000297907491000000000002540700000000007540621700000000000000009999123100000010000000000000BRBRAPACNPR2145
012023010202CSED3       010CRUZEIRO EDUON      NM   R$  000000000039800000000003980000000000365000000000037400000000003650000000000365000000000037201086000000000001216700000000000455357400000000000000009999123100000010000000000000BRCSEDACNOR9102
012023010202CSMG3       010COPASA      ON      NM   R$  000000000157100000000015710000000001503000000000152500000000015290000000001525000000000152904241000000000000989000000000001508266400000000000000009999123100000010000000000000BRCSMGACNOR5166
012023010202CSNA3       010SID NACIONALON  EJ       R$  000000000145500000000014980000000001425000000000146900000000014720000000001466000000000147211896000000000010686500000000015704835400000000000000009999123100000010000000000000BRCSNAACNOR6258
012023010202GGPS3       010GPS         ON      NM   R$  000000000117600000000011760000000001118000000000113500000000011300000000001130000000000113206113000000000001103700000000001253091100000000000000009999123100000010000000000000BRGGPSACNOR9101
012023010202HYPE3       010HYPERA      ON  EJ  NM   R$  000000000447000000000044770000000004322000000000437500000000043730000000004364000000000437311250000000000002145500000000009386600100000000000000009999123100000010000000000000BRHYPEACNOR0132
012023010202LVTC3       010WDC NETWORKSON      NM   R$  000000000058400000000005840000000000567000000000057100000000005800000000000575000000000058000817000000000000138700000000000079277200000000000000009999123100000010000000000000BRLVTCACNOR4101
012023010202FLRY3       010FLEURY      ON      NM   R$  000000000151100000000015260000000001483000000000150400000000015110000000001509000000000151108969000000000001906800000000002868917600000000000000009999123100000010000000000000BRFLRYACNOR5134
012023010202FRAS3       010FRAS-LE     ON  EJ  N1   R$  000000000096100000000009610000000000924000000000093400000000009250000000000925000000000097500755000000000000176100000000000164502500000000000000009999123100000010000000000000BRFRASACNOR0156
012023010202JHSF3       010JHSF PART   ON      NM   R$  000000000050100000000005010000000000481000000000048700000000004880000000000488000000000049004030000000000001356300000000000660714600000000000000009999123100000010000000000000BRJHSFACNOR2121
012023010202JSLG3       010JSL         ON  EJ  NM   R$  000000000055100000000005520000000000510000000000051800000000005150000000000514000000000051504564000000000000968300000000000502222100000000000000009999123100000010000000000000BRJSLGACNOR2120
012023010202BAHI3       010BAHEMA      ON      MA   R$  000000000117800000000011990000000001170000000000118100000000011990000000001144000000000120000004000000000000000400000000000000472400000000000000009999123100000010000000000000BRBAHIACNOR1073
012023010202BALM3       010BAUMER      ON           R$  000000000116000000000011600000000001160000000000116000000000011600000000000000000000000130000001000000000000000100000000000000116000000000000000009999123100000010000000000000BRBALMACNOR5052
012023010202BALM4       010BAUMER      PN           R$  000000000099500000000009950000000000995000000000099500000000009950000000000900000000000099500001000000000000000100000000000000099500000000000000009999123100000010000000000000BRBALMACNPR2053
012023010202BAZA3       010AMAZONIA    ON           R$  000000000486200000000049330000000004858000000000488800000000049320000000004825000000000491000017000000000000001900000000000009288300000000000000009999123100000010000000000000BRBAZAACNOR0177
012023010202BBAS3       010BRASIL      ON      NM   R$  000000000342200000000034220000000003290000000000333700000000033260000000003325000000000332739153000000000011778500000000039311512200000000000000009999123100000010000000000000BRBBASACNOR3311
012023010202BPAC11      010BTGP BANCO  UNT     N2   R$  000000000231700000000023200000000002208000000000225300000000022580000000002256000000000225826744000000000011596600000000026133599700000000000000009999123100000010000000000000BRBPACUNT006114
012023010202COCE5       010COELCE      PNA          R$  000000000442400000000044480000000004276000000000433600000000043250000000004315000000000441600052000000000000007800000000000033824600000000000000009999123100000010000000000000BRCOCEACNPA3145
012023010202COGN3       010COGNA ON    ON      NM   R$  000000000020900000000002120000000000203000000000020500000000002050000000000204000000000020511371000000000012941800000000002657343000000000000000009999123100000010000000000000BRCOGNACNOR2103
012023010202ENAT3       010ENAUTA PART ON      NM   R$  000000000133200000000013600000000001311000000000133000000000013400000000001336000000000134003300000000000000713800000000000949707500000000000000009999123100000010000000000000BRENATACNOR0103
012023010202ENBR3       010ENERGIAS BR ON      NM   R$  000000000208500000000020920000000002041000000000205900000000020460000000002046000000000204810595000000000003476500000000007161122300000000000000009999123100000010000000000000BRENBRACNOR2133
012023010202ENEV3       010ENEVA       ON      NM   R$  000000000117600000000011820000000001120000000000112700000000011200000000001120000000000112125405000000000005982000000000006745353900000000000000009999123100000010000000000000BRENEVACNOR8105
012023010202ENGI11      010ENERGISA    UNT     N2   R$  000000000436300000000043870000000004229000000000427400000000042890000000004289000000000430005701000000000000843700000000003606246500000000000000009999123100000010000000000000BRENGICDAM16132
012023010202ENGI3       010ENERGISA    ON      N2   R$  000000000140600000000014060000000001340000000000136000000000013600000000001341000000000143800031000000000000003200000000000004353400000000000000009999123100000010000000000000BRENGIACNOR0142
012023010202ENGI4       010ENERGISA    PN      N2   R$  000000000074200000000007420000000000720000000000072400000000007280000000000725000000000073300044000000000000008500000000000006162200000000000000009999123100000010000000000000BRENGIACNPR7138
012023010202ENJU3       010ENJOEI      ON      NM   R$  000000000009500000000000970000000000092000000000009300000000000930000000000092000000000009301175000000000000993800000000000092765400000000000000009999123100000010000000000000BRENJUACNOR9100
012023010202ENMT4       010ENERGISA MT PN           R$  000000000790000000000081000000000007900000000000803300000000081000000000003500000000000820000002000000000000000300000000000002410000000000000000009999123100000010000000000000BRENMTACNPR2121
012023010202KEPL3       010KEPLER WEBERON           R$  000000000201900000000020270000000001906000000000193600000000019530000000001952000000000195702264000000000000422600000000000818190000000000000000009999123100000010000000000000BRKEPLACNOR1057
012023010202KLBN11      010KLABIN S/A  UNT EJ  N2   R$  000000000199800000000020130000000001967000000000199800000000020050000000002002000000000200509604000000000002368500000000004732668600000000000000009999123100000010000000000000BRKLBNCDAM18134
012023010202KLBN3       010KLABIN S/A  ON  EJ  N2   R$  000000000039900000000004030000000000391000000000039800000000004030000000000399000000000040300816000000000000258600000000000102975700000000000000009999123100000010000000000000BRKLBNACNOR2162
012023010202KLBN4       010KLABIN S/A  PN  EJ  N2   R$  000000000040200000000004050000000000395000000000039900000000004010000000000401000000000040202013000000000001225800000000000489998600000000000000009999123100000010000000000000BRKLBNACNPR9162
012023010202BRSR5       010BANRISUL    PNA     N1   R$  000000000174800000000017480000000001748000000000174800000000017480000000001400000000000175300002000000000000000200000000000000349600000000000000009999123100000010000000000000BRBRSRACNPA6185
012023010202BRSR6       010BANRISUL    PNB     N1   R$  000000000097000000000009700000000000944000000000094800000000009450000000000945000000000094802587000000000000799000000000000758104800000000000000009999123100000010000000000000BRBRSRACNPB4184
012023010202RECV3       010PETRORECSA  ON      NM   R$  000000000326500000000033060000000003166000000000325800000000032740000000003273000000000327412818000000000001876100000000006112621900000000000000009999123100000010000000000000BRRECVACNOR3103
012023010202B3SA3       010B3          ON  EDJ NM   R$  000000000127900000000013040000000001207000000000122900000000012250000000001224000000000122556490000000000036463300000000044826103600000000000000009999123100000010000000000000BRB3SAACNOR6125
012023010202BOAS3       010BOA VISTA   ON  EJ  NM   R$  000000000071900000000007330000000000705000000000072000000000007260000000000726000000000072902901000000000000922300000000000664274600000000000000009999123100000010000000000000BRBOASACNOR6104
012023010202BOBR4       010BOMBRIL     PN           R$  000000000012300000000001260000000000121000000000012200000000001260000000000121000000000012600014000000000000013100000000000001607200000000000000009999123100000010000000000000BRBOBRACNPR3128
012023010202CLSA3       010CLEARSALE   ON      NM   R$  000000000056000000000005640000000000529000000000053800000000005290000000000528000000000052902260000000000000398400000000000214547100000000000000009999123100000010000000000000BRCLSAACNOR0100
012023010202CLSC3       010CELESC      ON  EJ  N2   R$  000000000500000000000050000000000004804000000000490200000000048060000000004806000000000504900005000000000000000900000000000004411800000000000000009999123100000010000000000000BRCLSCACNOR6144
012023010202CLSC4       010CELESC      PN  EJ  N2   R$  000000000538300000000054390000000005370000000000538700000000053700000000005101000000000547900005000000000000005400000000000029092400000000000000009999123100000010000000000000BRCLSCACNPR3123
012023010202CMIG3       010CEMIG       ON  EJ  N1   R$  000000000161500000000016150000000001565000000000158600000000015650000000001565000000000156901503000000000000531200000000000843013400000000000000009999123100000010000000000000BRCMIGACNOR6234
012023010202CMIG4       010CEMIG       PN  EJ  N1   R$  000000000110700000000011140000000001078000000000109100000000010910000000001089000000000109122954000000000006501200000000007095286600000000000000009999123100000010000000000000BRCMIGACNPR3235
012023010202CMIN3       010CSNMINERACAOON  EJ  N2   R$  000000000041000000000004100000000000397000000000040200000000004040000000000403000000000040408121000000000004162100000000001676151100000000000000009999123100000010000000000000BRCMINACNOR2106
012023010202BPAC3       010BTGP BANCO  ON      N2   R$  000000000128500000000013840000000001234000000000126000000000013000000000001233000000000130000089000000000000011900000000000014997500000000000000009999123100000010000000000000BRBPACACNOR7129
012023010202BPAC5       010BTGP BANCO  PNA     N2   R$  000000000056000000000005680000000000514000000000054800000000005140000000000502000000000051400135000000000000038200000000000020951700000000000000009999123100000010000000000000BRBPACACNPA0129
012023010202PTNT4       010PETTENATI   PN           R$  000000000063400000000006360000000000619000000000062600000000006220000000000622000000000063500019000000000000005700000000000003569000000000000000009999123100000010000000000000BRPTNTACNPR3046
012023010202QUAL3       010QUALICORP   ON      NM   R$  000000000057400000000005770000000000545000000000055300000000005520000000000552000000000055507362000000000002868700000000001586898900000000000000009999123100000010000000000000BRQUALACNOR6118
012023010202TFCO4       010TRACK FIELD PN  EJ  N2   R$  000000000101200000000010290000000000982000000000100200000000010040000000001004000000000101000275000000000000214900000000000215540100000000000000009999123100000010000000000000BRTFCOACNPR8106
012023010202TGMA3       010TEGMA       ON      NM   R$  000000000190000000000019080000000001850000000000188100000000018860000000001886000000000189001332000000000000254100000000000478110600000000000000009999123100000010000000000000BRTGMAACNOR7140
012023010202CALI3       010CONST A LINDON           R$  000000000082100000000008210000000000821000000000082100000000008210000000000816000000000089900002000000000000000200000000000000164200000000000000009999123100000010000000000000BRCALIACNOR1135
012023010202CAMB3       010CAMBUCI     ON           R$  000000000064800000000006490000000000597000000000061000000000006260000000000625000000000062900152000000000000029300000000000017894900000000000000009999123100000010000000000000BRCAMBACNOR4123
012023010202CAML3       010CAMIL       ON      NM   R$  000000000084400000000008440000000000786000000000079400000000007950000000000794000000000079503372000000000001002200000000000796702800000000000000009999123100000010000000000000BRCAMLACNOR3122
012023010202CASH3       010MELIUZ      ON      NM   R$  000000000012600000000001270000000000118000000000012200000000001220000000000121000000000012216940000000000055790500000000006852858900000000000000009999123100000010000000000000BRCASHACNOR8102
012023010202CBAV3       010CBA         ON      NM   R$  000000000114000000000011400000000001049000000000107800000000010900000000001083000000000109007758000000000002445200000000002636681300000000000000009999123100000010000000000000BRCBAVACNOR5102
012023010202CPFE3       010CPFL ENERGIAON      NM   R$  000000000327200000000032850000000003200000000000322600000000032190000000003219000000000323204964000000000000915500000000002953864700000000000000009999123100000010000000000000BRCPFEACNOR0134
012023010202CPLE11      010COPEL       UNT     N2   R$  000000000384900000000038500000000003701000000000373700000000037210000000003700000000000374100821000000000000098300000000000367426300000000000000009999123100000010000000000000BRCPLECDAM13105
012023010202CPLE3       010COPEL       ON      N2   R$  000000000068500000000006880000000000660000000000066700000000006660000000000666000000000066701347000000000000427900000000000285637600000000000000009999123100000010000000000000BRCPLEACNOR8147
012023010202CPLE6       010COPEL       PNB     N2   R$  000000000078100000000007900000000000757000000000076400000000007640000000000764000000000076514308000000000005561000000000004252243900000000000000009999123100000010000000000000BRCPLEACNPB9144
012023010202ESPA3       010ESPACOLASER ON      NM   R$  000000000013300000000001330000000000124000000000012600000000001250000000000125000000000012702198000000000001307200000000000165911100000000000000009999123100000010000000000000BRESPAACNOR7103
012023010202GEPA3       010GER PARANAP ON           R$  000000000240200000000026000000000002402000000000255500000000026000000000002402000000000260000005000000000000000900000000000002300200000000000000009999123100000010000000000000BRGEPAACNOR2149
012023010202GFSA3       010GAFISA      ON      NM   R$  000000000120000000000016500000000001040000000000134200000000014160000000001415000000000141631051000000000015120300000000020303342500000000000000009999123100000010000000000000BRGFSAACNOR3122
012023010202GGBR3       010GERDAU      ON      N1   R$  000000000245100000000024660000000002411000000000244000000000024620000000002416000000000247900185000000000000027200000000000066384800000000000000009999123100000010000000000000BRGGBRACNOR1184
012023010202GGBR4       010GERDAU      PN      N1   R$  000000000292800000000029680000000002880000000000292400000000029460000000002946000000000295217516000000000004851900000000014189599700000000000000009999123100000010000000000000BRGGBRACNPR8184
012023010202IFCM3       010INFRACOMM   ON      NM   R$  000000000037000000000003720000000000314000000000033000000000003140000000000314000000000031802508000000000000889100000000000293407500000000000000009999123100000010000000000000BRIFCMACNOR8101
012023010202PGMN3       010PAGUE MENOS ON      NM   R$  000000000043500000000004390000000000408000000000042300000000004300000000000430000000000043402380000000000000603500000000000255716500000000000000009999123100000010000000000000BRPGMNACNOR8100
012023010202PINE4       010PINE        PN      N2   R$  000000000016300000000001630000000000158000000000016000000000001620000000000160000000000016200063000000000000044900000000000007190100000000000000009999123100000010000000000000BRPINEACNPR8145
012023010202PLPL3       010PLANOEPLANO ON      NM   R$  000000000039500000000003980000000000365000000000038200000000003980000000000385000000000039800676000000000000310200000000000118561300000000000000009999123100000010000000000000BRPLPLACNOR5102
012023010202PNVL3       010DIMED       ON  EJ  NM   R$  000000000101100000000010110000000000950000000000096500000000009730000000000967000000000097301775000000000000350000000000000338085200000000000000009999123100000010000000000000BRPNVLACNOR9202
012023010202POMO3       010MARCOPOLO   ON  EJ  N2   R$  000000000023900000000002420000000000231000000000023500000000002310000000000231000000000023700394000000000000282200000000000066398000000000000000009999123100000010000000000000BRPOMOACNOR0091
012023010202POMO4       010MARCOPOLO   PN  EJ  N2   R$  000000000028200000000002860000000000266000000000027300000000002700000000000270000000000027108505000000000005251000000000001437093400000000000000009999123100000010000000000000BRPOMOACNPR7091
012023010202YDUQ3       010YDUQS PART  ON      NM   R$  000000000100500000000010050000000000967000000000098000000000009790000000000979000000000098024683000000000003892200000000003817729100000000000000009999123100000010000000000000BRYDUQACNOR3103
012023010202ZAMP3       010ZAMP S.A.   ON      NM   R$  000000000052500000000005290000000000496000000000050700000000005070000000000507000000000051601961000000000000606900000000000308159700000000000000009999123100000010000000000000BRZAMPACNOR5100
012023010202WEST3       010WESTWING    ON      NM   R$  000000000011200000000001250000000000111000000000011900000000001250000000000119000000000012500333000000000000224800000000000026855600000000000000009999123100000010000000000000BRWESTACNOR3100
012023010202WHRL3       010WHIRLPOOL   ON           R$  000000000047800000000004780000000000460000000000047500000000004600000000000468000000000047800002000000000000000600000000000000285000000000000000009999123100000010000000000000BRWHRLACNOR5127
012023010202TIMS3       010TIM         ON  EJ  NM   R$  000000000123900000000012440000000001178000000000119700000000011980000000001196000000000119808754000000000002774100000000003322152600000000000000009999123100000010000000000000BRTIMSACNOR5109
012023010202TOTS3       010TOTVS       ON  EJ  NM   R$  000000000268600000000026860000000002542000000000259600000000025890000000002586000000000260316981000000000003063900000000007955693500000000000000009999123100000010000000000000BRTOTSACNOR8142
012023010202TPIS3       010TRIUNFO PARTON      NM   R$  000000000009000000000000940000000000089000000000009100000000000910000000000091000000000009200234000000000000607800000000000055345800000000000000009999123100000010000000000000BRTPISACNOR8117
012023010202TRAD3       010TC          ON      NM   R$  000000000021800000000002180000000000205000000000021000000000002050000000000205000000000020900706000000000000305300000000000064230600000000000000009999123100000010000000000000BRTRADACNOR3101
012023010202TRIS3       010TRISUL      ON      NM   R$  000000000033700000000003400000000000320000000000032600000000003260000000000326000000000032701555000000000000714300000000000233160400000000000000009999123100000010000000000000BRTRISACNOR4115
012023010202TRPL3       010TRAN PAULISTON  EJ  N1   R$  000000000280500000000028900000000002802000000000282800000000028900000000002811000000000289000014000000000000001700000000000004808100000000000000009999123100000010000000000000BRTRPLACNOR4184
012023010202TRPL4       010TRAN PAULISTPN  EJ  N1   R$  000000000229900000000022990000000002255000000000227100000000022780000000002271000000000227906131000000000001613200000000003664034800000000000000009999123100000010000000000000BRTRPLACNPR1184
012023010202CCRO3       010CCR SA      ON      NM   R$  000000000106700000000010670000000001022000000000103400000000010290000000001029000000000103213710000000000004527400000000004685661300000000000000009999123100000010000000000000BRCCROACNOR2142
012023010202EGIE3       010ENGIE BRASILON  EJ  NM   R$  000000000378300000000037830000000003698000000000372100000000037320000000003729000000000373205818000000000000927300000000003450989200000000000000009999123100000010000000000000BREGIEACNOR9122
012023010202EKTR3       010ELEKTRO     ON           R$  000000000321100000000032110000000003211000000000321100000000032110000000003215000000000370000001000000000000000100000000000000321100000000000000009999123100000010000000000000BREKTRACNOR0154
012023010202EKTR4       010ELEKTRO     PN           R$  000000000360000000000036000000000003501000000000353400000000035010000000003502000000000370000003000000000000000300000000000001060300000000000000009999123100000010000000000000BREKTRACNPR7154
012023010202ELET3       010ELETROBRAS  ON      N1   R$  000000000408500000000041060000000004000000000000404900000000040590000000004054000000000405923485000000000007446100000000030151227300000000000000009999123100000010000000000000BRELETACNOR6158
012023010202ELET6       010ELETROBRAS  PNB     N1   R$  000000000420000000000042390000000004113000000000417600000000042020000000004200000000000420310715000000000001948800000000008139470500000000000000009999123100000010000000000000BRELETACNPB7075
012023010202ECOR3       010ECORODOVIAS ON      NM   R$  000000000043800000000004400000000000420000000000042600000000004240000000000424000000000042706539000000000001991300000000000849439900000000000000009999123100000010000000000000BRECORACNOR8118
012023010202ITUB3       010ITAUUNIBANCOON  EJ  N1   R$  000000000216300000000021640000000002118000000000213100000000021450000000002132000000000214502000000000000000480200000000001023693000000000000000009999123100000010000000000000BRITUBACNOR4313
012023010202ITUB4       010ITAUUNIBANCOPN  EJ  N1   R$  000000000244300000000024530000000002404000000000242600000000024490000000002448000000000244954346000000000023340700000000056642081600000000000000009999123100000010000000000000BRITUBACNPR1313
012023010202MRVE3       010MRV         ON      NM   R$  000000000075700000000007580000000000712000000000072900000000007340000000000734000000000073512326000000000005698200000000004157853900000000000000009999123100000010000000000000BRMRVEACNOR2126
012023010202MTRE3       010MITRE REALTYON      NM   R$  000000000036300000000003630000000000340000000000034900000000003590000000000359000000000036002079000000000000480100000000000168007700000000000000009999123100000010000000000000BRMTREACNOR6106
012023010202MTSA4       010METISA      PN           R$  000000000461700000000046170000000004405000000000445900000000045920000000003700000000000459200010000000000000001100000000000004905100000000000000009999123100000010000000000000BRMTSAACNPR9066
012023010202MULT3       010MULTIPLAN   ON  EJ  N2   R$  000000000217700000000021790000000002046000000000207700000000020710000000002071000000000207213612000000000004130100000000008578226000000000000000009999123100000010000000000000BRMULTACNOR5132
012023010202SCAR3       010SAO CARLOS  ON      NM   R$  000000000180700000000018100000000001782000000000180100000000018100000000001729000000000181000021000000000000002500000000000004504300000000000000009999123100000010000000000000BRSCARACNOR7130
012023010202LAND3       010TERRASANTAPAON      NM   R$  000000000285000000000029300000000002850000000000286900000000028750000000002875000000000289000060000000000000013000000000000037306100000000000000009999123100000010000000000000BRLANDACNOR9101
012023010202LAVV3       010LAVVI       ON      NM   R$  000000000047800000000004820000000000451000000000045800000000004540000000000454000000000045801426000000000000369600000000000169364800000000000000009999123100000010000000000000BRLAVVACNOR4105
012023010202LEVE3       010METAL LEVE  ON  EJ  NM   R$  000000000300600000000030220000000002755000000000286400000000028330000000002830000000000283301225000000000000227300000000000650999800000000000000009999123100000010000000000000BRLEVEACNOR2192
012023010202LIGT3       010LIGHT S/A   ON      NM   R$  000000000045900000000004640000000000428000000000044000000000004340000000000433000000000043405410000000000004930200000000002170390300000000000000009999123100000010000000000000BRLIGTACNOR2124
012023010202LJQQ3       010QUERO-QUERO ON      NM   R$  000000000041500000000004150000000000395000000000040000000000004000000000000400000000000040105205000000000002757700000000001104853400000000000000009999123100000010000000000000BRLJQQACNOR5103
012023010202SBSP3       010SABESP      ON      NM   R$  000000000563500000000056560000000005283000000000538800000000053450000000005345000000000535014849000000000002990300000000016114507700000000000000009999123100000010000000000000BRSBSPACNOR5159
012023010202RSUL4       010RIOSULENSE  PN           R$  000000000700500000000071980000000007000000000000707200000000071490000000007000000000000715000018000000000000002500000000000017681200000000000000009999123100000010000000000000BRRSULACNPR3112
012023010202BMEB3       010MERC BRASIL ON      N1   R$  000000000100000000000010000000000001000000000000100000000000010000000000001004000000000113900001000000000000000500000000000000500000000000000000009999123100000010000000000000BRBMEBACNOR8202
012023010202BMEB4       010MERC BRASIL PN      N1   R$  000000000100100000000010050000000000997000000000100000000000010000000000000999000000000100000027000000000000024200000000000024201300000000000000009999123100000010000000000000BRBMEBACNPR5207
012023010202BMGB4       010BANCO BMG   PN  EJ  N1   R$  000000000022000000000002210000000000212000000000021600000000002180000000000218000000000022001794000000000000915200000000000197869400000000000000009999123100000010000000000000BRBMGBACNPR0105
012023010202BMIN3       010MERC INVEST ON           R$  000000000190000000000019000000000001900000000000190000000000019000000000001700000000000189800001000000000000000300000000000000570000000000000000009999123100000010000000000000BRBMINACNOR4168
012023010202BMIN4       010MERC INVEST PN           R$  000000000132700000000013270000000001327000000000132700000000013270000000001247000000000136400002000000000000000200000000000000265400000000000000009999123100000010000000000000BRBMINACNPR1174
012023010202BMOB3       010BEMOBI TECH ON      NM   R$  000000000142700000000014270000000001356000000000137200000000013750000000001365000000000137501452000000000000297000000000000407666800000000000000009999123100000010000000000000BRBMOBACNOR7101
012023010202BRBI11      010BR PARTNERS UNT     N2   R$  000000000119900000000012000000000001108000000000115600000000011410000000001136000000000114800351000000000000061600000000000071214600000000000000009999123100000010000000000000BRBRBICDAM10103
012023010202BRFS3       010BRF SA      ON  ATZ NM   R$  000000000082000000000008200000000000753000000000077500000000007960000000000793000000000079628061000000000015978700000000012396304300000000000000009999123100000010000000000000BRBRFSACNOR8121
012023010202CSRN3       010COSERN      ON           R$  000000000216300000000021630000000002000000000000207500000000021390000000002010000000000220000004000000000000000400000000000000830200000000000000009999123100000010000000000000BRCSRNACNOR0183
012023010202CSRN5       010COSERN      PNA          R$  000000000229900000000025000000000002299000000000239500000000024800000000001980000000000249800005000000000000000500000000000001197800000000000000009999123100000010000000000000BRCSRNACNPA3183
012023010202CSUD3       010CSU DIGITAL ON      NM   R$  000000000121900000000012190000000001160000000000118200000000011600000000001160000000000116500427000000000000086900000000000102719600000000000000009999123100000010000000000000BRCSUDACNOR5101
012023010202CTNM4       010COTEMINAS   PN           R$  000000000017800000000001850000000000174000000000017700000000001740000000000174000000000018300052000000000000025300000000000004500000000000000000009999123100000010000000000000BRCTNMACNPR6129
012023010202CTSA3       010SANTANENSE  ON           R$  000000000025200000000002580000000000250000000000025100000000002500000000000250000000000025700015000000000000004000000000000001004800000000000000009999123100000010000000000000BRCTSAACNOR3062
012023010202CTSA4       010SANTANENSE  PN           R$  000000000016100000000001630000000000161000000000016200000000001620000000000161000000000016300007000000000000001300000000000000211000000000000000009999123100000010000000000000BRCTSAACNPR0062
012023010202CURY3       010CURY S/A    ON      NM   R$  000000000125000000000012500000000001166000000000118800000000011830000000001183000000000118505861000000000001272700000000001512483600000000000000009999123100000010000000000000BRCURYACNOR3103
012023010202GOLL4       010GOL         PN      N2   R$  000000000072800000000007280000000000688000000000069700000000006880000000000688000000000069107323000000000005078800000000003540597900000000000000009999123100000010000000000000BRGOLLACNPR4127
012023010202GRND3       010GRENDENE    ON      NM   R$  000000000060400000000006160000000000588000000000060100000000006120000000000607000000000061204256000000000001637900000000000985361800000000000000009999123100000010000000000000BRGRNDACNOR3168
012023010202GSHP3       010GENERALSHOPPON           R$  000000000225000000000024000000000002250000000000237500000000024000000000002250000000000252900006000000000000000600000000000001425000000000000000009999123100000010000000000000BRGSHPACNOR7102
012023010202GUAR3       010GUARARAPES  ON      NM   R$  000000000064400000000006440000000000587000000000060100000000005990000000000596000000000059904985000000000002019700000000001215253100000000000000009999123100000010000000000000BRGUARACNOR4172
012023010202MATD3       010MATER DEI   ON      NM   R$  000000000069600000000007030000000000648000000000066700000000006770000000000673000000000067702752000000000000527200000000000351684000000000000000009999123100000010000000000000BRMATDACNOR4102
012023010202MBLY3       010MOBLY       ON      NM   R$  000000000030000000000003000000000000286000000000029100000000002950000000000295000000000029600952000000000000327800000000000095681900000000000000009999123100000010000000000000BRMBLYACNOR5100
012023010202MDIA3       010M.DIASBRANCOON      NM   R$  000000000346500000000035480000000003371000000000348400000000035110000000003499000000000351105884000000000001128000000000003930860800000000000000009999123100000010000000000000BRMDIAACNOR7128
012023010202MDNE3       010MOURA DUBEUXON      NM   R$  000000000057900000000005800000000000544000000000055500000000005480000000000547000000000054800434000000000000104200000000000057887300000000000000009999123100000010000000000000BRMDNEACNOR9100
012023010202PCAR3       010P.ACUCAR-CBDON      NM   R$  000000000166000000000016640000000001578000000000160300000000016110000000001609000000000161106874000000000001905600000000003055182400000000000000009999123100000010000000000000BRPCARACNOR3166
012023010202PDGR3       010PDG REALT   ON      NM   R$  000000000001100000000000120000000000011000000000001100000000000120000000000011000000000001200539000000000003305700000000000037996000000000000000009999123100000010000000000000BRPDGRACNOR8116
012023010202PDTC3       010PADTEC      ON      NM   R$  000000000030300000000003100000000000303000000000030600000000003100000000000303000000000031000111000000000000013700000000000004204700000000000000009999123100000010000000000000BRPDTCACNOR3100
012023010202PEAB3       010PAR AL BAHIAON           R$  000000000505000000000050500000000005050000000000505000000000050500000000003000000000000480000001000000000000000100000000000000505000000000000000009999123100000010000000000000BRPEABACNOR3130
012023010202PETR3       010PETROBRAS   ON      N2   R$  000000000268500000000027300000000002596000000000262400000000026170000000002616000000000262034553000000000014365400000000037707244700000000000000009999123100000010000000000000BRPETRACNOR9198
012023010202PETR4       010PETROBRAS   PN      N2   R$  000000000235400000000023810000000002280000000000230900000000022920000000002292000000000229335849000000000078424700000000181137858500000000000000009999123100000010000000000000BRPETRACNPR6205
012023010202PRNR3       010PRINER      ON      NM   R$  000000000067100000000006940000000000650000000000067300000000006900000000000680000000000069000615000000000000190500000000000128260900000000000000009999123100000010000000000000BRPRNRACNOR4108
012023010202PSSA3       010PORTO SEGUROON      NM   R$  000000000237000000000023700000000002250000000000227400000000022640000000002264000000000226710700000000000002282600000000005192853600000000000000009999123100000010000000000000BRPSSAACNOR7150
012023010202PTBL3       010PORTOBELLO  ON      NM   R$  000000000081100000000008120000000000765000000000078200000000007880000000000788000000000079001985000000000000609100000000000476650000000000000000009999123100000010000000000000BRPTBLACNOR8131
012023010202PTNT3       010PETTENATI   ON           R$  000000000091100000000009110000000000900000000000090500000000009000000000000890000000000091000002000000000000000200000000000000181100000000000000009999123100000010000000000000BRPTNTACNOR6041
012023010202FIQE3       010UNIFIQUE    ON      NM   R$  000000000038700000000003900000000000375000000000038200000000003750000000000375000000000038500578000000000000136800000000000052320400000000000000009999123100000010000000000000BRFIQEACNOR5102
012023010202HBOR3       010HELBOR      ON      NM   R$  000000000020100000000002030000000000196000000000020000000000001990000000000199000000000020001248000000000001052400000000000210700500000000000000009999123100000010000000000000BRHBORACNOR3116
012023010202HBRE3       010HBR REALTY  ON      NM   R$  000000000045100000000004590000000000425000000000043300000000004300000000000430000000000043200126000000000000101600000000000044093600000000000000009999123100000010000000000000BRHBREACNOR4100
012023010202HBSA3       010HIDROVIAS   ON      NM   R$  000000000022300000000002250000000000215000000000021700000000002170000000000216000000000021704949000000000002147300000000000466959000000000000000009999123100000010000000000000BRHBSAACNOR0100
012023010202HETA4       010HERCULES    PN           R$  000000000041700000000004170000000000417000000000041700000000004170000000000383000000000041700001000000000000000200000000000000083400000000000000009999123100000010000000000000BRHETAACNPR9136
012023010202UNIP3       010UNIPAR      ON           R$  000000000800000000000081520000000007931000000000797000000000080100000000007980000000000803400184000000000000032400000000000258228800000000000000009999123100000010000000000000BRUNIPACNOR7202
012023010202UNIP5       010UNIPAR      PNA          R$  000000000920000000000092000000000008756000000000902700000000091680000000008519000000000935700005000000000000000500000000000004513600000000000000009999123100000010000000000000BRUNIPACNPA0204
012023010202UNIP6       010UNIPAR      PNB          R$  000000000881500000000088490000000008378000000000854000000000085690000000008568000000000860301361000000000000220900000000001886557600000000000000009999123100000010000000000000BRUNIPACNPB8202
012023010202USIM3       010USIMINAS    ON      N1   R$  000000000073900000000007390000000000711000000000072000000000007160000000000716000000000072401275000000000000310700000000000223714200000000000000009999123100000010000000000000BRUSIMACNOR3165
012023010202USIM5       010USIMINAS    PNA     N1   R$  000000000071500000000007180000000000698000000000070100000000007030000000000703000000000070410453000000000008284700000000005811245300000000000000009999123100000010000000000000BRUSIMACNPA6167
012023010202RENT3       010LOCALIZA    ON  EJS NM   R$  000000000520000000000052000000000005053000000000510400000000051250000000005125000000000513025948000000000004877200000000024894272000000000000000009999123100000010000000000000BRRENTACNOR4190
012023010202VAMO3       010VAMOS       ON  EJ  NM   R$  000000000124800000000012480000000001139000000000116700000000011610000000001161000000000116511086000000000002921000000000003408870100000000000000009999123100000010000000000000BRVAMOACNOR7103
012023010202VBBR3       010VIBRA       ON  EJ  NM   R$  000000000153200000000015350000000001461000000000147700000000014700000000001470000000000147219489000000000005341100000000007889419900000000000000009999123100000010000000000000BRVBBRACNOR1104
012023010202LWSA3       010LOCAWEB     ON      NM   R$  000000000068100000000006820000000000635000000000064700000000006420000000000641000000000064214697000000000009261900000000005998979400000000000000009999123100000010000000000000BRLWSAACNOR8102
012023010202RADL3       010RAIADROGASILON      NM   R$  000000000232800000000023400000000002302000000000232300000000023260000000002322000000000232615401000000000003326700000000007729474500000000000000009999123100000010000000000000BRRADLACNOR0147
012023010202RAIL3       010RUMO S.A.   ON      NM   R$  000000000183100000000018480000000001754000000000177100000000017660000000001766000000000177029371000000000011855600000000021003482800000000000000009999123100000010000000000000BRRAILACNOR9103
012023010202HAGA3       010HAGA S/A    ON           R$  000000000033500000000003530000000000335000000000034000000000003530000000000335000000000035500004000000000000000400000000000000136000000000000000009999123100000010000000000000BRHAGAACNOR7103
012023010202HAGA4       010HAGA S/A    PN           R$  000000000011200000000001150000000000111000000000011200000000001110000000000110000000000011100014000000000000005900000000000000666400000000000000009999123100000010000000000000BRHAGAACNPR4103
012023010202HAPV3       010HAPVIDA     ON      NM   R$  000000000049600000000005000000000000463000000000046900000000004640000000000464000000000046531718000000000022269600000000010447967000000000000000009999123100000010000000000000BRHAPVACNOR4112
012023010202ITSA3       010ITAUSA      ON      N1   R$  000000000089000000000008950000000000870000000000087800000000008830000000000879000000000088300336000000000000115600000000000101576300000000000000009999123100000010000000000000BRITSAACNOR0425
012023010202ITSA4       010ITAUSA      PN      N1   R$  000000000084400000000008450000000000825000000000083300000000008360000000000835000000000083628753000000000015184400000000012657626300000000000000009999123100000010000000000000BRITSAACNPR7425
012023010202RCSL3       010RECRUSUL    ON  ES       R$  000000000016400000000001700000000000136000000000014900000000001550000000000155000000000015701212000000000000580400000000000086730900000000000000009999123100000010000000000000BRRCSLACNOR4132
012023010202RCSL4       010RECRUSUL    PN  ES       R$  000000000006100000000000620000000000059000000000006000000000000600000000000060000000000006100304000000000000169800000000000010231500000000000000009999123100000010000000000000BRRCSLACNPR1132
012023010202RDNI3       010RNI         ON      NM   R$  000000000069600000000007080000000000666000000000068500000000006960000000000675000000000069600073000000000000009800000000000006719800000000000000009999123100000010000000000000BRRDNIACNOR9115
012023010202RDOR3       010REDE D OR   ON      NM   R$  000000000292100000000029390000000002700000000000274300000000027080000000002708000000000270918876000000000004189200000000011494976800000000000000009999123100000010000000000000BRRDORACNOR8109
012023010202CRFB3       010CARREFOUR BRON      NM   R$  000000000145600000000014590000000001405000000000142100000000014170000000001417000000000142206445000000000001653900000000002351473100000000000000009999123100000010000000000000BRCRFBACNOR2114
012023010202CRIV3       010ALFA FINANC ON           R$  000000000052500000000005250000000000496000000000051400000000004960000000000496000000000052400003000000000000001400000000000000720500000000000000009999123100000010000000000000BRCRIVACNOR4195
012023010202CRPG5       010CRISTAL     PNA          R$  000000000289700000000028970000000002755000000000281800000000028940000000002750000000000289500034000000000000004000000000000011275000000000000000009999123100000010000000000000BRCRPGACNPA3116
012023010202CRPG6       010CRISTAL     PNB          R$  000000000276100000000028000000000002551000000000264000000000026680000000002668000000000289900019000000000000004100000000000010827100000000000000009999123100000010000000000000BRCRPGACNPB1116
012023010202CSAB3       010SEG AL BAHIAON           R$  000000000305500000000030550000000003055000000000305500000000030550000000002824000000000423600001000000000000000100000000000000305500000000000000009999123100000010000000000000BRCSABACNOR1060
012023010202CSAB4       010SEG AL BAHIAPN           R$  000000000368000000000036800000000003680000000000368000000000036800000000003000000000000441600001000000000000000100000000000000368000000000000000009999123100000010000000000000BRCSABACNPR8060
012023010202CSAN3       010COSAN       ON      NM   R$  000000000169800000000017080000000001621000000000164500000000016260000000001626000000000163321477000000000008126300000000013374061100000000000000009999123100000010000000000000BRCSANACNOR6123
012023010202SANB11      010SANTANDER BRUNT          R$  000000000281000000000028110000000002753000000000277100000000027760000000002774000000000277606045000000000000883400000000002448379900000000000000009999123100000010000000000000BRSANBCDAM13158
012023010202SANB3       010SANTANDER BRON           R$  000000000133000000000013300000000001299000000000130600000000013230000000001314000000000132301267000000000000171900000000000224627700000000000000009999123100000010000000000000BRSANBACNOR8165
012023010202SANB4       010SANTANDER BRPN           R$  000000000149400000000014940000000001460000000000146800000000014830000000001469000000000148301101000000000000162100000000000238124100000000000000009999123100000010000000000000BRSANBACNPR5165
012023010202SAPR11      010SANEPAR     UNT EJ  N2   R$  000000000173500000000017350000000001671000000000168700000000016870000000001684000000000168703486000000000000937300000000001581254100000000000000009999123100000010000000000000BRSAPRCDAM13115
012023010202SAPR3       010SANEPAR     ON  EJ  N2   R$  000000000033200000000003320000000000323000000000032500000000003230000000000323000000000032700793000000000000307900000000000100279400000000000000009999123100000010000000000000BRSAPRACNOR9156
012023010202SAPR4       010SANEPAR     PN  EJ  N2   R$  000000000034900000000003490000000000338000000000034100000000003450000000000343000000000034504792000000000003507700000000001198346200000000000000009999123100000010000000000000BRSAPRACNPR6156
012023010202SBFG3       010GRUPO SBF   ON      NM   R$  000000000127800000000012780000000001170000000000119400000000011910000000001190000000000119104658000000000000958900000000001145636400000000000000009999123100000010000000000000BRSBFGACNOR1101
012023010202PARD3       010IHPARDINI   ON  EJ  NM   R$  000000000208500000000020850000000002001000000000203700000000020550000000002047000000000205501724000000000000351400000000000716129800000000000000009999123100000010000000000000BRPARDACNOR1125
012023010202PATI3       010PANATLANTICAON           R$  000000000350000000000035000000000003500000000000350000000000035000000000002801000000000369000002000000000000000300000000000001050000000000000000009999123100000010000000000000BRPATIACNOR6063
012023010202VIIA3       010VIA         ON      NM   R$  000000000023500000000002380000000000226000000000023000000000002310000000000230000000000023117784000000000032476100000000007500032600000000000000009999123100000010000000000000BRVIIAACNOR7101
012023010202WHRL4       010WHIRLPOOL   PN           R$  000000000049700000000005000000000000492000000000049400000000004920000000000493000000000050000026000000000000005300000000000002621400000000000000009999123100000010000000000000BRWHRLACNPR2127
012023010202WIZS3       010WIZ S.A.    ON      NM   R$  000000000069500000000006950000000000676000000000068400000000006890000000000687000000000068902759000000000001161800000000000795120400000000000000009999123100000010000000000000BRWIZSACNOR1107
012023010202WLMM4       010WLM IND COM PN           R$  000000000220300000000022690000000002180000000000221700000000022300000000002090000000000226600015000000000000002100000000000004656100000000000000009999123100000010000000000000BRWLMMACNPR3112
012023010202BIOM3       010BIOMM       ON      MA   R$  000000000066500000000006800000000000620000000000065400000000006800000000000680000000000069000147000000000000033800000000000022105200000000000000009999123100000010000000000000BRBIOMACNOR2110
012023010202CEBR3       010CEB         ON           R$  000000000100900000000010100000000001009000000000100900000000010100000000000995000000000101800005000000000000001500000000000001514600000000000000009999123100000010000000000000BRCEBRACNOR5122
012023010202CEBR5       010CEB         PNA          R$  000000000103100000000010310000000001031000000000103100000000010310000000001035000000000108000001000000000000000100000000000000103100000000000000009999123100000010000000000000BRCEBRACNPA8121
012023010202CEBR6       010CEB         PNB          R$  000000000100400000000010200000000000995000000000100200000000010200000000001009000000000102000037000000000000027300000000000027364700000000000000009999123100000010000000000000BRCEBRACNPB6121
012023010202CGAS3       010COMGAS      ON  EJ       R$  000000001280800000000128080000000012808000000001280800000000128080000000012688000000001399900001000000000000000100000000000001280800000000000000009999123100000010000000000000BRCGASACNOR0159
012023010202CGAS5       010COMGAS      PNA EJ       R$  000000001336900000000133690000000012700000000001286500000000127000000000012703000000001328200010000000000000001300000000000016724900000000000000009999123100000010000000000000BRCGASACNPA3156
012023010202CGRA3       010GRAZZIOTIN  ON  EJ       R$  000000000280000000000028000000000002760000000000278200000000027750000000002623000000000279000007000000000000000900000000000002504500000000000000009999123100000010000000000000BRCGRAACNOR2078
012023010202CGRA4       010GRAZZIOTIN  PN  EJ       R$  000000000271900000000027190000000002635000000000265700000000026890000000002644000000000268900072000000000000013300000000000035348800000000000000009999123100000010000000000000BRCGRAACNPR9078
012023010202CIEL3       010CIELO       ON  EJ  NM   R$  000000000051200000000005180000000000503000000000051000000000005100000000000509000000000051019452000000000013170800000000006722724500000000000000009999123100000010000000000000BRCIELACNOR3152
012023010202ELMD3       010ELETROMIDIA ON      NM   R$  000000000102400000000010300000000000948000000000098600000000010300000000001021000000000103000621000000000000206600000000000203853500000000000000009999123100000010000000000000BRELMDACNOR3100
012023010202EMAE4       010EMAE        PN           R$  000000000679900000000067990000000006120000000000639000000000063000000000006250000000000630000093000000000000015100000000000096499200000000000000009999123100000010000000000000BREMAEACNPR1121
012023010202EMBR3       010EMBRAER     ON      NM   R$  000000000141600000000014420000000001391000000000142000000000014300000000001429000000000143008916000000000003640400000000005171048200000000000000009999123100000010000000000000BREMBRACNOR4190
012023010202WEGE3       010WEG         ON      NM   R$  000000000385000000000038500000000003774000000000380600000000038100000000003809000000000381013701000000000003017700000000011486093900000000000000009999123100000010000000000000BRWEGEACNOR0214
012023010202VALE3       010VALE        ON      NM   R$  000000000886800000000089900000000008853000000000894200000000089400000000008937000000000894941447000000000012783800000000114313760300000000000000009999123100000010000000000000BRVALEACNOR0206
012023010202ROMI3       010ROMI        ON  EJ  NM   R$  000000000152200000000015220000000001421000000000145700000000014700000000001450000000000147001972000000000000399600000000000582292300000000000000009999123100000010000000000000BRROMIACNOR8186
012023010202RRRP3       0103R PETROLEUMON      NM   R$  000000000372400000000037930000000003597000000000366400000000036410000000003640000000000364113731000000000002878800000000010548266300000000000000009999123100000010000000000000BRRRRPACNOR5100
012023010202MILS3       010MILLS       ON      NM   R$  000000000112500000000011250000000001000000000000103300000000010210000000001020000000000102303489000000000001084900000000001121353400000000000000009999123100000010000000000000BRMILSACNOR2119
012023010202MLAS3       010MULTILASER  ON      NM   R$  000000000039200000000003990000000000368000000000037900000000003800000000000380000000000038104697000000000001070400000000000405992900000000000000009999123100000010000000000000BRMLASACNOR9101
012023010202MNPR3       010MINUPAR     ON           R$  000000000059000000000006090000000000590000000000060000000000006090000000000584000000000061500005000000000000000600000000000000360000000000000000009999123100000010000000000000BRMNPRACNOR5122
012023010202MOAR3       010MONT ARANHA ON  ED       R$  000000004600100000000460010000000044000000000004540400000000452000000000045200000000005250000009000000000000000900000000000040864100000000000000009999123100000010000000000000BRMOARACNOR5226
012023010202MODL3       010MODALMAIS   ON      NM   R$  000000000021500000000002150000000000204000000000020500000000002060000000000205000000000020605181000000000006714500000000001380922400000000000000009999123100000010000000000000BRMODLACNOR2107
012023010202MOVI3       010MOVIDA      ON  EJ  NM   R$  000000000075300000000007540000000000717000000000072400000000007180000000000718000000000072309458000000000002873800000000002083332400000000000000009999123100000010000000000000BRMOVIACNOR0121
012023010202MRFG3       010MARFRIG     ON      NM   R$  000000000086700000000008690000000000824000000000084200000000008360000000000836000000000083712301000000000005620500000000004735203200000000000000009999123100000010000000000000BRMRFGACNOR0115
012023010202GMAT3       010GRUPO MATEUSON      NM   R$  000000000062900000000006300000000000596000000000060400000000006070000000000606000000000060714910000000000003633100000000002197609900000000000000009999123100000010000000000000BRGMATACNOR7100
012023010202GOAU3       010GERDAU MET  ON      N1   R$  000000000117600000000012210000000001176000000000120200000000011990000000001198000000000121000198000000000000047000000000000056520900000000000000009999123100000010000000000000BRGOAUACNOR1261
012023010202GOAU4       010GERDAU MET  PN      N1   R$  000000000128000000000013070000000001274000000000129400000000013050000000001302000000000130509116000000000003083800000000003990914200000000000000009999123100000010000000000000BRGOAUACNPR8262
012023010202IGTI11      010IGUATEMI S.AUNT     N1   R$  000000000182300000000018270000000001739000000000176700000000017650000000001765000000000177214506000000000002440400000000004312348400000000000000009999123100000010000000000000BRIGTICDAM16102
012023010202IGTI3       010IGUATEMI S.AON      N1   R$  000000000026500000000002650000000000248000000000025100000000002480000000000248000000000025200190000000000000055000000000000013828200000000000000009999123100000010000000000000BRIGTIACNOR8102
012023010202IGTI4       010IGUATEMI S.APN      N1   R$  000000000077300000000007770000000000752000000000077100000000007520000000000752000000000081600008000000000000001600000000000001234900000000000000009999123100000010000000000000BRIGTIACNPR5102
012023010202INEP3       010INEPAR      ON           R$  000000000012000000000001270000000000116000000000012200000000001230000000000122000000000012300440000000000001074400000000000131904100000000000000009999123100000010000000000000BRINEPACNOR1142
012023010202INEP4       010INEPAR      PN           R$  000000000009800000000001050000000000097000000000010100000000001010000000000101000000000010200255000000000000582300000000000059255500000000000000009999123100000010000000000000BRINEPACNPR8142
012023010202INTB3       010INTELBRAS   ON  EJ  NM   R$  000000000303200000000030320000000002913000000000293900000000029390000000002939000000000294903709000000000000555500000000001632803400000000000000009999123100000010000000000000BRINTBACNOR9105
012023010202IRBR3       010IRBBRASIL REON      NM   R$  000000000008600000000000900000000000085000000000008700000000000870000000000087000000000008813355000000000033286300000000002916629700000000000000009999123100000010000000000000BRIRBRACNOR4109
012023010202NTCO3       010GRUPO NATURAON      NM   R$  000000000114500000000011450000000001055000000000107800000000010640000000001064000000000106717086000000000007948200000000008571261300000000000000009999123100000010000000000000BRNTCOACNOR5103
012023010202PETZ3       010PETZ        ON  EJ  NM   R$  000000000061900000000006190000000000580000000000059100000000005900000000000589000000000059010906000000000007159400000000004233609500000000000000009999123100000010000000000000BRPETZACNOR2107
012023010202AALR3       010ALLIAR      ON      NM   R$  000000000214100000000021560000000002098000000000211300000000021120000000002111000000000211201714000000000000497000000000001050623000000000000000009999123100000010000000000000BRAALRACNOR6102
012023010202ABCB4       010ABC BRASIL  PN  EJ  N2   R$  000000000193300000000019330000000001842000000000186000000000018590000000001859000000000186503030000000000000509700000000000948457500000000000000009999123100000010000000000000BRABCBACNPR4143
012023010202CVCB3       010CVC BRASIL  ON      NM   R$  000000000044400000000004450000000000421000000000042700000000004250000000000425000000000042805870000000000005475700000000002342080600000000000000009999123100000010000000000000BRCVCBACNOR1114
012023010202CXSE3       010CAIXA SEGURION      NM   R$  000000000082400000000008250000000000807000000000081200000000008120000000000812000000000081702811000000000001533100000000001245772600000000000000009999123100000010000000000000BRCXSEACNOR7103
012023010202CYRE3       010CYRELA REALTON      NM   R$  000000000128900000000012960000000001245000000000126700000000012850000000001283000000000128814751000000000005573000000000007065292300000000000000009999123100000010000000000000BRCYREACNOR7137
012023010202VIVA3       010VIVARA S.A. ON      NM   R$  000000000224300000000022430000000002060000000000209200000000020760000000002075000000000207904414000000000000857800000000001794597000000000000000009999123100000010000000000000BRVIVAACNOR0105
012023010202VIVR3       010VIVER       ON      NM   R$  000000000004900000000000510000000000048000000000004900000000000510000000000050000000000005100569000000000002420500000000000120621400000000000000009999123100000010000000000000BRVIVRACNOR4117
012023010202VIVT3       010TELEF BRASILON  EDJ      R$  000000000370000000000037340000000003624000000000364700000000036390000000003638000000000363907464000000000001119300000000004082699000000000000000009999123100000010000000000000BRVIVTACNOR0169
012023010202VLID3       010VALID       ON      NM   R$  000000000094700000000009470000000000840000000000087300000000009200000000000898000000000092002528000000000000542100000000000473440400000000000000009999123100000010000000000000BRVLIDACNOR5136
012023010202VULC3       010VULCABRAS   ON      NM   R$  000000000123000000000012570000000001158000000000118300000000011900000000001190000000000120501675000000000000508000000000000601244300000000000000009999123100000010000000000000BRVULCACNOR2151
012023010202VVEO3       010VIVEO       ON  EJ  NM   R$  000000000166000000000016600000000001528000000000156100000000015800000000001574000000000159100768000000000000102700000000000160395700000000000000009999123100000010000000000000BRVVEOACNOR0103
012023010202EQMA3B      010EQTLMARANHAOON      MB   R$  000000000265000000000026500000000002550000000000255500000000025500000000002550000000000265000005000000000000002000000000000005110100000000000000009999123100000010000000000000BREQMAACNOR8106
012023010202EQPA3       010EQTL PARA   ON           R$  000000000063600000000006770000000000635000000000064000000000006400000000000638000000000066300010000000000000002900000000000001856600000000000000009999123100000010000000000000BREQPAACNOR1108
012023010202EQPA5       010EQTL PARA   PNA          R$  000000000086400000000008640000000000864000000000086400000000008640000000000680000000000120000001000000000000000100000000000000086400000000000000009999123100000010000000000000BREQPAACNPA4108
012023010202EQTL3       010EQUATORIAL  ON      NM   R$  000000000269300000000026930000000002606000000000262400000000026190000000002619000000000262018641000000000004085300000000010722882500000000000000009999123100000010000000000000BREQTLACNOR0128
012023010202KRSA3       010KORA SAUDE  ON      NM   R$  000000000007800000000000840000000000076000000000008000000000000790000000000077000000000007900219000000000000297500000000000023863500000000000000009999123100000010000000000000BRKRSAACNOR0100
012023010207LLIS3       010LE LIS BLANCON  ES  NM   R$  000000000020900000000002090000000000185000000000019000000000001850000000000185000000000018700310000000000000271900000000000051918600000000000000009999123100000010000000000000BRLLISACNOR4115
012023010208SLED4       010SARAIVA LIVRPN      N2   R$  000000000023600000000002420000000000226000000000023500000000002270000000000227000000000023800013000000000000002600000000000000612700000000000000009999123100000010000000000000BRSLEDACNPR7158
012023010208ATMP3       010ATMASA      ON      NM   R$  000000000012200000000001260000000000114000000000011900000000001140000000000114000000000012200032000000000000007900000000000000940700000000000000009999123100000010000000000000BRATMPACNOR8100
012023010208ETER3       010ETERNIT     ON      NM   R$  000000000106700000000010780000000001032000000000105600000000010580000000001058000000000106101765000000000000345600000000000365181800000000000000009999123100000010000000000000BRETERACNOR3239
012023010208TEKA4       010TEKA        PN           R$  000000000225000000000022500000000002250000000000225000000000022500000000001850000000000220000001000000000000000300000000000000675000000000000000009999123100000010000000000000BRTEKAACNPR3140
012023010208HOOT4       010HOTEIS OTHONPN           R$  000000000012000000000001200000000000118000000000011900000000001180000000000115000000000012000006000000000000001300000000000000154700000000000000009999123100000010000000000000BRHOOTACNPR9015
012023010208LUPA3       010LUPATECH    ON      NM   R$  000000000039700000000004140000000000384000000000039500000000003880000000000387000000000038801842000000000001699800000000000672873300000000000000009999123100000010000000000000BRLUPAACNOR8109
012023010208FRTA3       010POMIFRUTAS  ON      NM   R$  000000000024300000000002430000000000221000000000023900000000002390000000000225000000000023900009000000000000001900000000000000455600000000000000009999123100000010000000000000BRFRTAACNOR8103
012023010208JFEN3       010JOAO FORTES ON           R$  000000000007000000000000720000000000064000000000006700000000000650000000000065000000000006700106000000000000076700000000000005140600000000000000009999123100000010000000000000BRJFENACNOR0057
012023010208PMAM3       010PARANAPANEMAON      NM   R$  000000000046700000000004790000000000460000000000047000000000004700000000000468000000000047100148000000000000044700000000000021046300000000000000009999123100000010000000000000BRPMAMACNOR3037
012023010208RNEW11      010RENOVA      UNT     N2   R$  000000000060100000000006010000000000587000000000059300000000005870000000000587000000000059800010000000000000001200000000000000711900000000000000009999123100000010000000000000BRRNEWCDAM15110
012023010208RNEW3       010RENOVA      ON      N2   R$  000000000019500000000001980000000000193000000000019500000000001950000000000195000000000019800032000000000000018000000000000003512700000000000000009999123100000010000000000000BRRNEWACNOR8110
012023010208RNEW4       010RENOVA      PN      N2   R$  000000000019500000000002000000000000194000000000019500000000001960000000000196000000000020400047000000000000025200000000000004927600000000000000009999123100000010000000000000BRRNEWACNPR5110
012023010208RPMG3       010PET MANGUINHON           R$  000000000017200000000001720000000000155000000000016100000000001680000000000161000000000016800049000000000000023900000000000003863400000000000000009999123100000010000000000000BRRPMGACNOR9194
012023010208RSID3       010ROSSI RESID ON      NM   R$  000000000027900000000002790000000000265000000000027200000000002650000000000265000000000027500093000000000000021200000000000005780100000000000000009999123100000010000000000000BRRSIDACNOR8120
012023010208IGBR3       010IGB S/A     ON           R$  000000000330000000000034450000000003300000000000340500000000034450000000003310000000000345000010000000000000004400000000000014985900000000000000009999123100000010000000000000BRIGBRACNOR7034
012023010210AESB1       010AES BRASIL  DIR ORD NM   R$  000000000002500000000000260000000000023000000000002500000000000240000000000024000000000002600122000000000000040700000000000001021600000000000000009999123100000010000000000000BRAESBD02OR0104
012023010210LLIS1       010LE LIS BLANCDIR ORD NM   R$  000000000002100000000000220000000000018000000000001800000000000180000000000018000000000001900105000000000000101400000000000001906700000000000000009999123100000010000000000000BRLLISD02OR7114
012023010210DESK1       010DESKTOP     DIR ORD NM   R$  000000000000900000000000110000000000008000000000000900000000000080000000000008000000000000900081000000000000160300000000000001485700000000000000009999123100000010000000000000BRDESKD01OR7101
012023010210RENT1       010LOCALIZA    DIR ORD NM   R$  000000000090900000000009630000000000842000000000092000000000009360000000000935000000000096300276000000000000046000000000000042354100000000000000009999123100000010000000000000BRRENTD02OR7189
012023010210RCSL1       010RECRUSUL    DIR ORD      R$  000000000000700000000000080000000000004000000000000600000000000060000000000006000000000000700401000000000001652500000000000010136100000000000000009999123100000010000000000000BRRCSLD08OR4131
012023010210RCSL2       010RECRUSUL    DIR PRE      R$  000000000000100000000000020000000000001000000000000100000000000020000000000001000000000000200350000000000002716800000000000003480100000000000000009999123100000010000000000000BRRCSLD08PR1131
012023010212NAVT11      010FII NAVI TOTCI           R$  000000000750000000000075000000000007319000000000748200000000074990000000007451000000000750000006000000000000000017000000000000127206000000000000009999123100000010000000000000BRNAVTCTF015120
012023010212NCHB11      010FII NCH BR  CI           R$  000000000889600000000089930000000008894000000000893200000000089500000000008950000000000895500456000000000000004313000000000038525330000000000000009999123100000010000000000000BRNCHBCTF000211
012023010212NEWL11      010FII NEWPORT CI  ER       R$  000000000970000000000098010000000009350000000000955400000000096300000000009514000000000970000169000000000000001696000000000016204594000000000000009999123100000010000000000000BRNEWLCTF004137
012023010212NEWU11      010FII NEWRU   CI  ER       R$  000000000410000000000041000000000004100000000000410000000000041000000000004050000000000410000003000000000000000008000000000000032800000000000000009999123100000010000000000000BRNEWUCTF005104
012023010212WSEC11      010FII WARREN  CI           R$  000000000965800000000096890000000009658000000000968800000000096890000000009601000000000968900007000000000000000078000000000000755711000000000000009999123100000010000000000000BRWSECCTF010102
012023010212XPCI11      010FII XP CRED CI  ER       R$  000000000805500000000083500000000007902000000000813500000000083300000000008329000000000833005680000000000000035544000000000289163082000000000000009999123100000010000000000000BRXPCICTF007140
012023010212XPCM11      010FII XP MACAECI  ER       R$  000000000142900000000014500000000001429000000000144100000000014480000000001446000000000144800320000000000000004749000000000006844386000000000000009999123100000010000000000000BRXPCMCTF009218
012023010212XPHT11      010FII XP HOT  CI  ER       R$  000000001120000000000112010000000011200000000001120000000000112010000000011201000000001129700003000000000000000020000000000000224017000000000000009999123100000010000000000000BRXPHTCTF003123
012023010212XPIN11      010FII XP INDL CI           R$  000000000730000000000073780000000007182000000000728300000000072290000000007190000000000722901533000000000000007972000000000058066994000000000000009999123100000010000000000000BRXPINCTF004156
012023010212TRXB11      010FII TRX R IICI  ER       R$  000000001300000000000130000000000013000000000001300000000000130000000000000000000000001350000002000000000000000005000000000000065000000000000000009999123100000010000000000000BRTRXBCTF002131
012023010212TRXF11      010FII TRX REALCI  ER       R$  000000001050000000000105980000000010350000000001049800000000104800000000010465000000001048003032000000000000021301000000000223630890000000000000009999123100000010000000000000BRTRXFCTF003144
012023010212DRIT11B     010FII MTGESTAOCI      MB   R$  000000000970500000000097050000000009705000000000970500000000097050000000009705000000001310000001000000000000000001000000000000009705000000000000009999123100000010000000000000BRDRITCTF009234
012023010212DVFF11      010FII DEVA FOFCI           R$  000000000721100000000072120000000007111000000000719600000000072000000000007151000000000719500015000000000000000223000000000001604887000000000000009999123100000010000000000000BRDVFFCTF006119
012023010212PQAG11      010FII PARQ ANHCI  ER       R$  000000000549900000000054990000000005440000000000547500000000054870000000005301000000000547000008000000000000000037000000000000202586000000000000009999123100000010000000000000BRPQAGCTF009131
012023010212PQDP11      010FII D PEDRO CI  ER       R$  000000021550000000002155000000000210000000000021366600000002100000000000206100000000021469900005000000000000000030000000000006410000000000000000009999123100000010000000000000BRPQDPCTF004253
012023010212BLCA11      010FII BLUE AAACI           R$  000000001000000000000100000000000010000000000001000000000000100000000000007501000000000999900001000000000000000001000000000000010000000000000000009999123100000010000000000000BRBLCACTF009112
012023010212BRLA11      010FII BRLPROIICI           R$  000000001429900000000142990000000014299000000001429900000000142990000000000000000000001429900002000000000000000063000000000000900837000000000000009999123100000010000000000000BRBRLACTF007129
012023010212DAMT11B     010FII DIAMANTECI  ER  MB   R$  000000000158800000000016070000000001301000000000159700000000013010000000001301000000000160700018000000000000000035000000000000055920000000000000009999123100000010000000000000BRDAMTCTF007104
012023010212NVHO11      010FII NOVOHORICI  ER       R$  000000000100000000000010250000000001000000000000101100000000010090000000001000000000000100900029000000000000000137000000000000138617000000000000009999123100000010000000000000BRNVHOCTF003211
012023010212SDIL11      010FII SDI LOG CI  ER       R$  000000000925000000000092500000000009021000000000906700000000090210000000009021000000000903902952000000000000018455000000000167348186000000000000009999123100000010000000000000BRSDILCTF004227
012023010212SEQR11      010FII SEQUOIA CI           R$  000000000625000000000062810000000006024000000000608200000000060690000000006067000000000610902654000000000000008418000000000051198468000000000000009999123100000010000000000000BRSEQRCTF002125
012023010212SHPH11      010FII HIGIENOPCI  ER       R$  000000007370000000000749910000000072001000000007298600000000721000000000072001000000007210000143000000000000000251000000000018319727000000000000009999123100000010000000000000BRSHPHCTF008333
012023010212SJAU11      010FII SJ AU   CI           R$  000000001080000000000108000000000010800000000001080000000000108000000000009000000000001080000001000000000000000005000000000000054000000000000000009999123100000010000000000000BRSJAUCTF009101
